:020000040800F2
:1000000000000824D52600084D25000851250008C9
:1000100055250008592500085D250008000000004E
:100020000000000000000000000000006125000842
:100030006525000800000000692500086D250008FE
:100040002527000825270008252700082527000860
:100050002527000825270008252700082527000850
:100060002527000825270008252700082527000840
:100070002527000825270008252700082527000830
:100080002527000825270008252700082527000820
:100090002527000825270008252700082527000810
:1000A0002527000825270008252700082527000800
:1000B00025270008252700082527000825270008F0
:1000C00025270008252700082527000825270008E0
:1000D00025270008252700082527000825270008D0
:1000E0002527000825270008000000002527000814
:1000F00025270008252700082527000825270008B0
:10010000252700082527000825270008252700089F
:10011000252700082527000825270008252700088F
:100120002527000871250008252700082527000835
:10013000252700082527000825270008252700086F
:1001400000000000000000000000000000000000AF
:10015000252700082527000825270008252700084F
:10016000252700082527000825270008252700083F
:1001700025270008252700087D250008000000002D
:10018000252700082527000825270008252700081F
:10019000252700082527000825270008252700080F
:1001A00025270008252700082527000825270008FF
:1001B00025270008252700082527000825270008EF
:1001C00025270008252700082527000825270008DF
:1001D00025270008252700082527000825270008CF
:1001E00025270008252700082527000825270008BF
:1001F00025270008252700082527000825270008AF
:10020000252700082527000825270008252700089E
:10021000252700082527000825270008252700088E
:1002200025270008252700082527000800000000D2
:1002300025270008252700080000000025270008C2
:10024000252700082527000825270008252700085E
:10025000252700082527000825270008252700084E
:10026000252700082527000825270008252700083E
:100270002527000825270008252700080000000082
:100280002527000825270008252700080000000072
:08029000000000002527000812
:1002A00010B5054C237833B9044B13B10448AFF3B0
:1002B00000800123237010BDD8000024000000003E
:1002C0005C88000808B5034B1BB103490348AFF332
:1002D000008008BD00000000DC0000245C880008ED
:1002E00001F0FF01102A2BDB10F0070F08D010F8E7
:1002F000013B013A8B422DD010F0070F42B3F6D1EB
:10030000F0B441EA012141EA014122F007047FF003
:1003100000070023F0E80256083C85EA010586EA5A
:10032000010685FA47F5A3FA87F586FA47F6A5FA96
:1003300087F68EB9EED1F0BC01F0FF0102F00702A2
:1003400032B110F8013B013A83EA010313B1F8D14D
:100350000020704701387047002D06BF354603382E
:10036000073815F0010F07D1013015F4807F02BF67
:10037000013015F4C03F0130F0BC0138704700BFB8
:1003800053B94AB9002908BF00281CBF4FF0FF31FC
:100390004FF0FF3000F074B9ADF1080C6DE904CEF8
:1003A00000F006F8DDF804E0DDE9022304B0704750
:1003B0002DE9F047089D04468E46002B4DD18A4218
:1003C000944669D9B2FA82F252B101FA02F3C2F14B
:1003D000200120FA01F10CFA02FC41EA030E9440DC
:1003E0004FEA1C48210CBEFBF8F61FFA8CF708FBFD
:1003F00016E341EA034306FB07F199420AD91CEBD5
:10040000030306F1FF3080F01F81994240F21C8106
:10041000023E63445B1AA4B2B3FBF8F008FB10334E
:1004200044EA034400FB07F7A7420AD91CEB040483
:1004300000F1FF3380F00A81A74240F20781644453
:10044000023840EA0640E41B00261DB1D4400023D8
:10045000C5E900433146BDE8F0878B4209D9002D3C
:1004600000F0EF800026C5E9000130463146BDE8C6
:10047000F087B3FA83F6002E4AD18B4202D3824230
:1004800000F2F980841A61EB030301209E46002DDF
:10049000E0D0C5E9004EDDE702B9FFDEB2FA82F234
:1004A000002A40F09280A1EB0C014FEA1C471FFA92
:1004B0008CFE0126200CB1FBF7F307FB131140EA79
:1004C00001410EFB03F0884208D91CEB010103F146
:1004D000FF3802D2884200F2CB804346091AA4B208
:1004E000B1FBF7F007FB101144EA01440EFB00FEDC
:1004F000A64508D91CEB040400F1FF3102D2A64541
:1005000000F2BB800846A4EB0E0440EA03409CE7DF
:10051000C6F12007B34022FA07FC4CEA030C20FA8C
:1005200007F401FA06F31C43F9404FEA1C4900FAAC
:1005300006F3B1FBF9F8200C1FFA8CFE09FB181129
:1005400040EA014108FB0EF0884202FA06F20BD99C
:100550001CEB010108F1FF3A80F08880884240F2EC
:100560008580A8F102086144091AA4B2B1FBF9F030
:1005700009FB101144EA014100FB0EFE8E4508D92B
:100580001CEB010100F1FF346CD28E456AD90238B0
:10059000614440EA0840A0FB0294A1EB0E01A14295
:1005A000C846A64656D353D05DB1B3EB080261EB03
:1005B0000E0101FA07F722FA06F3F1401F43C5E9DD
:1005C000007100263146BDE8F087C2F12003D84013
:1005D0000CFA02FC21FA03F3914001434FEA1C4755
:1005E0001FFA8CFEB3FBF7F007FB10360B0C43EA47
:1005F000064300FB0EF69E4204FA02F408D91CEBF7
:10060000030300F1FF382FD29E422DD902386344F4
:100610009B1B89B2B3FBF7F607FB163341EA034194
:1006200006FB0EF38B4208D91CEB010106F1FF38E3
:1006300016D28B4214D9023E6144C91A46EA0046DA
:1006400038E72E46284605E70646E3E61846F8E66C
:100650004B45A9D2B9EB020864EB0C0E0138A3E7B5
:100660004646EAE7204694E74046D1E7D0467BE796
:10067000023B614432E7304609E76444023842E70E
:10068000704700BF10B5094C82B0E368019000913B
:10069000984763699847236ADDE900109847A36982
:1006A0009847236902B0BDE81040184704000024B1
:1006B00010B5094C82B0E368019098476369984788
:1006C000E36901989847A36901909847236998477F
:1006D000019802B010BD00BF0400002438B5C20765
:1006E000114D0446EB680FD498476B69984704F0A6
:1006F000FE00EB6920309847AB69044698472B69A8
:100700009847C4F3072038BD98476B69984704F0B1
:10071000FE00EB6920309847AB69044698472B6987
:100720009847E0B238BD00BF0400002438B5C207C6
:10073000114D0446EB680FD498476B69984704F055
:10074000FE00EB6928309847AB69044698472B694F
:100750009847C4F3072038BD98476B69984704F061
:10076000FE00EB6928309847AB69044698472B692F
:100770009847E0B238BD00BF040000242DE9F843DB
:1007800000F108080127134C4FEA881808F12409E2
:1007900008F12608E368984763699847E369484683
:1007A0009847A3690646984723699847E36898479E
:1007B00063699847E36940469847A36905469847A7
:1007C000236998473B4645EA0647BB42E2D1384693
:1007D000BDE8F883040000242DE9F04700F1080784
:1007E0004FF0010A154C8146BF0107F128082A374E
:1007F000E368984763699847E36940469847A36967
:100800000646984723699847E3689847636998477D
:10081000E36938469847A36905469847236998478E
:10082000534645EA064A5345E2D1054B13F8090001
:10083000C0F340005044BDE8F08700BF040000242E
:10084000F800002412B380012DE9F041904682B0F7
:100850004D1C0F4CCF4300F22E2615F8012C15F835
:10086000021BE36841EA02210191984763699847B6
:1008700001993046236A9847A369984723699847A6
:100880007B199845E9D802B0BDE8F081704700BFF8
:100890000400002462B32DE9F0474FEA80190024D8
:1008A000804692460D4609F50C792646114F04E024
:1008B00001342E700135A24515D0E307F8D4FB684A
:1008C000013498477B699847FB694846013598474A
:1008D000BB69064698473B699847A2454FEA1623ED
:1008E00005F8013CE9D1044B03F80860BDE8F08746
:1008F000704700BF04000024000100242DE9F04FE0
:10090000082883B0BDF8308000F22C8100F1080780
:1009100006468B461546BF011C463846FFF7C8FE03
:1009200000F00F000238022800F21F81002D00F0B5
:100930001F812378627802EB0322A37803EB022263
:10094000E37803EB02230193002B00F0A380B8F1BE
:10095000000F05D13846FFF7ABFE410740F1FF809D
:1009600007F108094846FFF7A3FE00F0EF03C0B205
:10097000222B02D0422840F0EF80237807F11400A8
:100980006178DFF8F4A101EB032189B2FFF77AFE69
:10099000A378E17807F1160001EB032189B2FFF794
:1009A00071FE414607F112004FF00108FFF76AFEA1
:1009B0003046FFF793FE08FA06F8800280B28542BF
:1009C00028BF05463046FFF7D9FE04464846FFF7E4
:1009D0006FFEC0B2A4B2002865D0BAF8003013EAA6
:1009E000080F54D0A54200F298802A465946304656
:1009F000FFF728FF1820FFF75BFE034618201B0AAD
:100A00008DF80430FFF754FE03461A208DF80530A8
:100A1000FFF74EFE03461A201B0A8DF80630FFF73B
:100A200047FE8DF80700019C002C41D000231E4694
:100A3000994698469A469B46019307F1200000216B
:100A4000BC1CFFF71FFE294607F12200FFF71AFE24
:100A500020212046FFF716FE2046FFF729FEC0B2F0
:100A60000028F9D1063701E01B075AD43846FFF7B2
:100A70001FFEC206C3B2F7D538461021FFF702FEAB
:100A8000BBF1000F3BD1284603B0BDE8F08FA54273
:100A900098D8AAE73846FFF70BFE40073FF557AF57
:100AA0006FF00B0001E06FF0030003B0BDE8F08FC2
:100AB0001420FFF7FDFD82461420CAF30F2A8DF89B
:100AC00004A0FFF7F5FD5FFA80F816208DF8058089
:100AD000FFF7EEFDC0F30F2916208DF80690FFF703
:100AE000E7FDC6B2214614208DF80760FFF7CAFD66
:100AF00021461620FFF7C6FDDDF804B09DE708EBA0
:100B00000A21142089B2FFF7BDFD162006EB09214A
:100B100089B2FFF7B7FD2846B6E7002003B0BDE86D
:100B2000F08F38460821FFF7ADFDBBF1000F04D16F
:100B30006FF00C0003B0BDE8F08F08EB0A21142021
:100B400089B2FFF79FFD162006EB092189B2FFF756
:100B500099FD6FF00C00A8E76FF00600A5E76FF0B5
:100B60000A00A2E74FF0FF309FE76FF004009CE718
:100B70006FF00D0099E700BFF40000242DE9F0416B
:100B800000F1080884B007464FEA88184046FFF78E
:100B90008FFD00F00F04012C2DD008F1020508F1A3
:100BA000080610212846FFF76DFD2846FFF780FD57
:100BB00010F0FF04F9D1FF2108F10600FFF762FDF4
:100BC00001232748BB4027490288DB431BB21A4058
:100BD00002800A881340244A0B80244B22F81740D5
:100BE000DC553046FFF764FDC0B20028F9D1012082
:100BF00004B0BDE8F0813846FFF7C0FD0546384631
:100C0000FFF76CFDB5EB802FC7D04FF0807302214A
:100C1000404608F102050393FFF734FD4FF44051BD
:100C200008F10A00FFF72EFD21462846FFF72AFDAE
:100C30002846FFF73DFDC0B20028F9D108F10806AB
:100C40003046FFF735FDC0B22228F9D14FF44053AA
:100C500001223846009303AB1946FFF74FFEA0E789
:100C6000F4000024F600002408010024F800002409
:100C7000082800F2918001292DE9F041054682B053
:100C80000F4690461E465AD08B1E022B73D8710712
:100C900079D43EB1012F73D0022F03D1B20601D512
:100CA000330670D5284605F10804FFF767FF26F0E4
:100CB0000F01A4010F43F101204601F48071394373
:100CC000FFF7E0FCB8F1000F0AD1354A4FF6F0719A
:100CD000B2F8008008F101039BB28B4256D013801A
:100CE000A71C414604F10A00FFF7CCFC012138465D
:100CF000FFF7C8FC3846FFF7DBFC10F0FF02F9D124
:100D00000123284F284908341E40AB4021F8152004
:100D1000DB4339882548AE401BB219400E43018899
:100D20000B403E800380224B5A552046FFF7C0FC03
:100D3000C0B20028F9D068B202B0BDE8F081182036
:100D4000FFF7B6FC000A8DF804001820FFF7B0FC8E
:100D50008DF805001A20FFF7ABFC000A8DF806009D
:100D60001A20FFF7A5FC8DF80700019B002B8ED100
:100D70006FF00200E0E76FF0040002B0BDE8F08120
:100D800016F0230F8ED16FF00500D5E74FF44043E6
:100D90004FF6EF781380A3E74FF0FF30704700BFA6
:100DA00000000024F400002408010024F6000024C0
:100DB000F800002408282DD870B500F10804054675
:100DC000E4B2A4012046FFF773FC00F00F000128F5
:100DD0001AD104F108063046FFF76AFCC0B21328A6
:100DE00015D1023402212046FFF74CFC2046FFF7C4
:100DF0005FFCC0B20028F9D13046FFF759FCC0B201
:100E000014280AD1012070BD6FF0040070BD6FF08E
:100E1000020070BD4FF0FF3070472846FFF7AEFE6E
:100E20006FF0030070BD00BF08283ED870B500F118
:100E300008040546A4012046FFF73AFC00F00F0025
:100E400001282FD1A61C08213046FFF71BFC304695
:100E5000FFF72EFC10F0FF00F9D1154E0122154BC3
:100E600002FA05F132881B8822EA01022B41328006
:100E7000DA0710D404F10806063403E0FFF718FC83
:100E8000030709D43046FFF713FC03462046DBB2C4
:100E9000002BF3D1012070BD2846FFF76FFE6FF0E5
:100EA0000C0070BD6FF0040070BD4FF0FF30704754
:100EB000F6000024F40000242DE9F04F082883B048
:100EC000019100F28F8000F10809054614464FEAAF
:100ED00089194846FFF7ECFB00F00F00012840F0AD
:100EE0008780002C00F0818009F108073846FFF761
:100EF000DFFBC0B2172801D01C2870D1DFF804B185
:100F0000BBF800302B41D90743D40126AE40284618
:100F1000DFF8F480FFF7E2FB800280B2844228BF52
:100F200004462846FFF72AFC82463846FFF7C0FBF6
:100F3000C3B21FFA8AFA172B01D01C2B3AD1B8F88A
:100F40000030334233D054452DD8284622460199EB
:100F500009F10205FFF776FC002109F12000FFF7F7
:100F600091FB214609F12200FFF78CFB2021284646
:100F7000FFF788FB2846FFF79BFBC0B20028F9D19A
:100F8000BBF8003020461E43ABF8006003B0BDE85C
:100F9000F08F09F106063046FFF78AFBC206C3B29E
:100FA00010D41B0727D4002003B0BDE8F08F5445B0
:100FB000B7D8CAE72846FFF7E1FD6FF0060003B097
:100FC000BDE8F08F304601261021FFF75BFBAE40F5
:100FD000BBF8003023EA0603ABF8003097E76FF068
:100FE0000600E1E74FF0FF30DEE76FF00D00DBE7D2
:100FF0006FF00400D8E72846FFF7C0FD6FF00C0043
:10100000D2E700BFF6000024F40000242DE9F04FE1
:10101000082885B0019100F2F38000F108098346A9
:1010200015464FEA89194846FFF742FB00F00F04C6
:10103000012C40F0EB80002D00F0E5805846DFF8F1
:10104000DCA1FFF773FB80023AF81B2083B2009308
:101050003ABB04FA0BF409F10807DFF8C4815846DB
:10106000FFF7BAFB06463846FFF722FB0246B6B248
:101070005846D2B2172A5CD01C2A40F09480002E29
:101080005DD1FFF77BFB06465846FFF727FBB6EB23
:10109000802F00F08880B8F800202242DFD00020A6
:1010A00044E01E464846FFF703FBC00573D5002009
:1010B000FFF7FEFA04464846FFF7FAFAC1057FD566
:1010C000544C2AF81B6014F80B2002F00200009B1D
:1010D0009D4228BF1D46B54228BF3546002800F076
:1010E00088804D4A711E019B12F80B208EB203F8C6
:1010F000012B14F80B2001936B1E02F0FD022AF85D
:101100001B601FFA83F804F80B20B8F1000F1ED102
:10111000002E50D1002204F80B204846FFF7C8FAF1
:10112000C30502D500222AF81B20284605B0BDE8D9
:10113000F08FB8F80020224206D0002EAFD03AF847
:101140001B20002AB3D0ADE7002E88D0F7E709F1C5
:101150000207019958464246FFF79CFB402138465A
:10116000FFF790FA3846FFF7A3FAC0B20028F9D18A
:101170003AF81B20A2EB080292B22AF81B20002AA0
:10118000C8D018F0010F14F80B2014D042F003025D
:1011900004F80B20C1E71F4C3AF81B6014F80B2031
:1011A00002F0020093E75846FFF7E8FC6FF00600F4
:1011B00005B0BDE8F08F42F0010204F80B20ACE767
:1011C000022203A95846FFF765FBE20513D5BDF8D7
:1011D0000C60009B80220F4CAB422AF81B6004F885
:1011E0000B2028BF2B46B34228BF334698461D46E6
:1011F0008BE7A84689E7BDF80C1049BA8EB2E8E73C
:101200004FF0FF3092E76FF00D008FE76FF00400B2
:101210008CE700BFF800002400010024080100242E
:10122000F4000024704700BF008880B2704700BF00
:1012300001807047704700BF704700BF704700BF14
:10124000074B1A88D20500D4FEE718B111B1C3E9E3
:101250000701704703490448C3E90701704700BF0D
:101260000400002431120008291200082DE9F04F73
:1012700008208BB0FFF71CFA024608200992FFF7FE
:1012800017FA03460A200893FFF712FA83460A204A
:10129000FFF70EFA82460C20FFF70AFA00900C20A6
:1012A000FFF706FA01901020FFF702FA02901020D3
:1012B000FFF7FEF903901220FFF7FAF904901220CD
:1012C000FFF7F6F905901420FFF7F2F906901420C5
:1012D000FFF7EEF907901620FFF7EAF9814616208E
:1012E000FFF7E6F980461820FFF7E2F907461820D5
:1012F000FFF7DEF906461A20FFF7DAF905461A204D
:10130000FFF7D6F9802104460020FFF7BBF9002043
:10131000FFF7CEF9099A089B082022F0FF0151FA45
:1013200083F189B2FFF7AEF92BF0FF010A2051FAE1
:101330008AF189B2FFF7A6F9009B0C2023F0FF0188
:10134000019B51FA83F189B2FFF79CF9029B1020AF
:1013500023F0FF01039B51FA83F189B2FFF792F961
:10136000049B122023F0FF01059B51FA83F189B2FF
:10137000FFF788F9069B142023F0FF01079B51FA21
:1013800083F189B2FFF77EF929F0FF01162051FAA7
:1013900088F189B2FFF776F927F0FF01182051FA9A
:1013A00086F189B2FFF76EF925F0FF011A2051FA94
:1013B00084F189B20BB0BDE8F04FFFF763B900BF0D
:1013C00010B50C46082841D8DFE800F0440558491C
:1013D00080644040700000293CD0FFF747FF23782D
:1013E0003F2B33D862783F2A30D81344A2783F2A63
:1013F000DBB22BD81344E2783F2ADBB226D8134461
:1014000022793F2ADBB221D8134462793F2ADBB22A
:101410001CD81344A2793F2ADBB217D81344E279CF
:101420003F2ADBB212D813445B070FD1237A3F2B3C
:101430000CD8627A3F2A09D81344A27A3F2ADBB239
:1014400004D81344E27A3F2ADBB24DD94FF0FF3380
:10145000184610BDFFF70AFF0023184610BD0B8881
:101460000220DAB2190A42F0100341EA032121F402
:101470007061FFF707F90023184610BD0220FFF73F
:1014800017F90023020A02F0F00202EB002020808C
:10149000184610BD0420FFF70BF90023020A02F0E2
:1014A000E00202EB00202080184610BD1C4A0021FB
:1014B00090780B462070D07860701079A0705079C9
:1014C000E070184692796171227110BD0B8804207A
:1014D00003F0EF02190A41EA022121F47061FFF7DB
:1014E000D1F80023184610BD1344227B3F2ADBB2FB
:1014F000ACD81344627B3F2ADBB2A7D81344A27B4B
:101500003F2ADBB2A2D81344E27B3F2ADBB29DD84C
:10151000134413F0070318BF01235B4298E700BF91
:101520000400002410B5044608202378617801EBFC
:10153000032189B2FFF7A6F8A378E1780A2001EB2E
:10154000032189B2FFF79EF8237961790C2001EB22
:10155000032189B2FFF796F8A37BE17B102001EB12
:10156000032189B2FFF78EF8237C617C122001EB06
:10157000032189B2FFF786F8A37AE17A142001EB00
:10158000032189B2FFF77EF8237B617B162001EBF4
:10159000032189B2FFF776F8A379E179182001EBEE
:1015A000032189B2FFF76EF8237A617A1A2001EBE2
:1015B000032189B2FFF766F80349D4F81200034B00
:1015C000A27D08601A7010BD1C01002418010024BF
:1015D00010B504460820FFF76BF803460820C34007
:1015E0002370FFF765F803460A206370FFF760F881
:1015F00003460A201B0AA370FFF75AF803460C2083
:10160000E370FFF755F803460C201B0A2371FFF720
:101610004FF8034610206371FFF74AF80346102085
:101620001B0AA373FFF744F803461220E373FFF786
:101630003FF8034612201B0A2374FFF739F80346CC
:1016400014206374FFF734F8034614201B0AA372B6
:10165000FFF72EF803461620E372FFF729F803463A
:1016600016201B0A2373FFF723F803461820637321
:10167000FFF71EF8034618201B0AA371FFF718F89E
:1016800003461A20E371FFF713F803461A201B0ADA
:101690002372FFF70DF8074B07495A7809786072F3
:1016A000E27418789A78DB78A074A1752275637556
:1016B00010BD00BF1C0100241801002438B50C46E1
:1016C00005283AD8DFE800F00F1419282F031E2050
:1016D000FEF7EEFF03461C202370FEF7E9FF0346EA
:1016E0000020638038BD0846FFF71CFF002038BD8E
:1016F0000846FFF76DFF002038BD0D7835F038043F
:101700001BD12046FEF7D4FF01462046C9B229432B
:10171000FEF7B8FF204638BD0020FEF7C9FF03469C
:101720000020237038BD09781E20FEF7ABFF6188CA
:101730001C20FEF7A7FF002038BD4FF0FF3038BD5A
:10174000400000F1C8400180704700BF400000F138
:10175000C840008880B2704710B5114BADF5006DE0
:10176000FA2200248DF80300000A1B688DF800207F
:101770008DF801408DF8020013B90DF5006D10BD14
:10178000012001F039F840F2045269462046FFF783
:1017900093FB012001F030F80DF5006D10BD00BF86
:1017A0003400002410B5FB23ADF5006D00244FF488
:1017B000A0628DF80030030A8DF8030001A80B49E0
:1017C0008DF802308DF8014006F02EF8084B1B68AA
:1017D00013B90DF5006D10BD40F204526946204664
:1017E000FFF76AFB0DF5006D10BD00BF200100245E
:1017F00034000024F8B5161E0DDD0D460024074FF9
:10180000013401222946642324B23846154405F0E8
:101810005DFDB442F4DB3046F8BD00BF940F0024F8
:1018200010B5194C84B02046FFF7D2FE61792279B9
:10183000E078A37800901548CDE9012162782178FD
:1018400006F008F8607A237AE279A17900901048CE
:1018500006F000F8607B237BE27AA17A00900D48C5
:1018600005F0F8FF607C237CE27BA17B00900A48B6
:1018700005F0F0FF607D237DE27CA17C00900748AD
:1018800005F0E8FF04B010BD38000024748800089B
:10189000A4880008C0880008DC880008F8880008D0
:1018A00008B500224FF40041154802F087FE0A20D7
:1018B00000F0A2FF01224FF40041114802F07EFE29
:1018C000642000F099FF0F490F48FFF7B9FC0F495A
:1018D0000120FFF775FD01300ED00020FEF7E8FE75
:1018E00001460B4805F0B6FF0A490020FFF7E6FE67
:1018F000BDE80840FFF794BF074806F031F8ECE771
:10190000001C0258411700084D1700085000002421
:10191000388900083800002414890008704700BF87
:10192000024A136801331360704700BF200E002481
:10193000024A136801331360704700BF240E00246D
:1019400010B586B08E460123014664240DF11700C0
:101950009446724600900294019303488DF817C094
:1019600003F03CF806B010BDF80E002430B587B087
:101970000A4601234FF47A750DF1170400210295F0
:101980008DF8171001460448CDE9004303F050F9E3
:101990009DF8170007B030BDF80E002400F02CBFF2
:1019A00010B50D4C01220821204602F007FE0A2046
:1019B00000F022FF00220821204602F0FFFD0A204D
:1019C00000F01AFF20460122082102F0F7FD6420F2
:1019D000BDE8104000F010BF0010025800B56020B4
:1019E00083B000F0A1FB034605480193019905F07F
:1019F00031FF0321602003B05DF804EB00F036BB3B
:101A00004C89000810B5042084B000F08FFF4FF01F
:101A1000C84400F07DFF0121074A4FF001236846CA
:101A2000ADF800100194CDE9022300F08FFF0420EF
:101A300000F07CFF04B010BD0F00000310B5A0B093
:101A40004C2200210DA805F0FDFE2022002104A853
:101A500005F0F8FE022003F08DFA3B4B00213B4AD3
:101A60000191D96A21F00101D962DB6A03F0010317
:101A70000193936943F440439361936903F44043B2
:101A80000193019B93699904FCD5314BD3F8F41071
:101A900041F00201C3F8F4100021D3F8F43003F050
:101AA00002030293029B03919169274B41F4404149
:101AB0009161926902F440420392D96A234A41F04B
:101AC0000101D962DB6A03F001030393039B93696D
:101AD0009B04FCD502230121002204240D930DA8B0
:101AE00016931A9310914021179211911894CDE9F1
:101AF0001B330C231D933C23CDE91E22199303F0C5
:101B0000E1FA08B172B6FEE73F220323214604A89A
:101B1000CDE9042300220823CDE9062340224023F7
:101B2000CDE908234FF480624023CDE90A2303F076
:101B30008FFE014608B172B6FEE74FF4C01203F003
:101B400095FD20B010BD00BF0004005800480258A9
:101B50000044025800000000BF4A536913F40033E8
:101B60002DE9804899B011D1BFF34F8FBFF36F8F2C
:101B7000C2F85032BFF34F8FBFF36F8F536943F4F6
:101B800000335361BFF34F8FBFF36F8FB34C00250A
:101B9000FFF738FF4FF0000800F0ECFD4FF00009B0
:101BA000FFF74CFF14950C212A46AD480427AD4E93
:101BB000CDE91055CDE91255D4F8E03043F01003CB
:101BC000C4F8E030D4F8E03003F010030193019B37
:101BD000D4F8E03043F02003C4F8E030D4F8E0302B
:101BE00003F020030293029BD4F8E03043F0040397
:101BF000C4F8E030D4F8E03003F004030393039B0F
:101C0000D4F8E03043F00103C4F8E030D4F8E03019
:101C100003F001030493049BD4F8E03043F0020383
:101C2000C4F8E030D4F8E03003F002030593059BDC
:101C3000D4F8E03043F08003C4F8E030D4F8E0306A
:101C400003F080030693069BD4F8E03043F00803CA
:101C5000C4F8E030D4F8E03003F008030793079BA2
:101C6000D4F8E03043F04003C4F8E030D4F8E0307A
:101C700003F040030893089B02F0A0FC2A460821C9
:101C8000794802F09BFC2A462021784802F096FC15
:101C90002A464FF40041764802F090FC0C220123C2
:101CA00010A96F48CDE91023CDE9128902F04CFB51
:101CB0008022002310A96F481295CDE9102302F06D
:101CC00043FB0822012310A96748CDE91023CDE981
:101CD000128902F039FB2022012310A96348CDE9C3
:101CE0001023CDE9128902F02FFB0422002310A952
:101CF00061481295CDE9102302F026FB4FF44062B3
:101D0000122310A95C481497CDE91023CDE912895C
:101D100002F01AFB4FF48072022310A95348149565
:101D2000CDE91023CDE9128902F00EFB4FF40042F9
:101D3000012310A94E48CDE91023CDE9128902F004
:101D400003FBD4F8D8302A46012143F0020339209E
:101D5000C4F8D830D4F8D83003F002030093009BC5
:101D600000F074FD392000F0AFFD444B3046756043
:101D700033602023F560B360B5613563C6E904556F
:101D8000C6E90855C6E90A5500F058FE044608B1F0
:101D900072B6FEE73A48102310AA09A943610D93D1
:101DA00014930A23374D0B93129305230F940C932E
:101DB0001393112316940E931593022304628360E8
:101DC0004FF48053846243624FF480438463C36260
:101DD0004FF400130464C3630FF27409D9E9008956
:101DE000C0E90344C0E90089C0E90644C0E90C44E5
:101DF000CDE90977CDE9107704F0C8FE4FF4E1335F
:101E0000214A28462C61C5E900230C23C5E9024478
:101E1000C5E90534C5E90744C5E9094405F022FBD5
:101E200008B172B6FEE70146284605F0A5FB08B1E9
:101E300072B6FEE70146284605F0E0FB08B172B62F
:101E4000FEE7284605F07AFB0346F8B172B6FEE7D6
:101E5000004000520441005200ED00E000440258EE
:101E600000100258300E00240008025800000258EA
:101E7000001C0258001402580004025800000248D6
:101E8000480F0024940F002400100140644C654961
:101E9000654A204684E80E000122C4E90533C4E9FE
:101EA0000323C4E9073302F043FD014608B172B6CB
:101EB000FEE7204603F008F8014608B172B6FEE7D7
:101EC000204603F02BF8044608B172B6FEE75748E7
:101ED00005F046FDDFF880A1FFF780FDDFF87C917B
:101EE000FFF7DEFC30464FF420732146504ADFF8FE
:101EF00070B1504F504DDFF86C81504E00F0ECFD4A
:101F00004FF40270DAF80040FEF7D2FBC3B21C2B8C
:101F100013D8DFE803F02512121212121212121255
:101F2000121212121212121212211212122C121268
:101F300012120F000020FEF777FF3B68002B3AD10A
:101F40003368002BDCD0002328683360FFF72AFCBD
:101F50002B6801332B60D3E70020FEF72BFFECE763
:101F60000023A2B201211846FEF782FEE5E740F207
:101F70000620FEF79DFBC30732D40020FEF72CFCA1
:101F800080B20028D9D0B0F5006F494628BF4FF481
:101F90000060044600202246FFF738F899F8003028
:101FA000F02B23D0FE2B34D0FD2B2BD02146244800
:101FB00005F050FCC1E7002428683C60FFF7CCFB2B
:101FC0002A68D8F800101F4805F044FC1E4805F0A8
:101FD000C7FCD8F800302C600133C8F80030AFE7F8
:101FE000012140F20620FEF74DFBC6E7B9F80220BA
:101FF00052BA92B20AB1012AD8D10421134802F090
:10200000DDFAD3E700231248CBF8003005F0A8FC36
:10201000CCE701230F48CBF8003005F0A1FCC5E761
:10202000F80E002400540040B17570309889000803
:1020300020010024200E00242C0E0024240E002455
:1020400088890008AC890008B8890008000802588F
:1020500074890008608900083000002420060024EC
:1020600034000024280E002472B6FEE770B5044642
:102070000D46FFF795FC0122E4B2FF212046FFF751
:102080005FFC204680221221FFF75AFCC820FFF790
:1020900085FC032D11D8DFE805F02F2011021E4D1D
:1020A00005F5ED766A78204615F8021BFFF748FC27
:1020B0000220FFF773FCB542F4D170BD174D05F552
:1020C000ED766A78204615F8021BFFF739FC0220EE
:1020D000FFF764FCB542F4D170BD114D05F5DC7617
:1020E0006A78204615F8021BFFF72AFC0120FFF74B
:1020F00055FCB542F4D170BD0A4D05F5DC766A7821
:10210000204615F8021BFFF71BFC0120FFF746FCD9
:10211000AE42F4D170BD00BF1C8F0008D08900080A
:10212000648D0008AC8B000810B5044682B0FFF740
:1021300037FC0122E0B2FF210190FFF701FC0A21E8
:102140000198FFF713FC80B202B010BD074B82B0BC
:10215000D3F8F42042F00202C3F8F420D3F8F430AC
:1021600003F002030193019B02B070470044025840
:10217000624B02682DE9F0439A428DB04FF00004A3
:10218000CDE906440894CDE9094402D00DB0BDE87C
:10219000F0835B4B0D2705465A48D3F8DC204FF0FF
:1021A00000084FF00009584E42F00102C3F8DC204D
:1021B000D3F8DC2002F001020092009AD3F8E0206C
:1021C00042F01002C3F8E020D3F8E02002F0100241
:1021D0000192019AD3F8E02042F00102C3F8E02016
:1021E000D3F8E02002F001020292029AD3F8E02034
:1021F00042F08002C3F8E020D3F8E02002F0800231
:102200000392039AD3F8E02042F00802C3F8E020DA
:10221000D3F8E02002F008020492049AD3F8E020F8
:1022200042F00202C3F8E0207022D3F8E0300A97AF
:1022300003F0020305930223059906A9CDE90623BD
:1022400002F082F85022022306A930480A97CDE90D
:102250000623CDE9088902F077F84FF4F052022303
:1022600006A92B480A97CDE90623CDE9088902F093
:102270006BF80822022306A926480A97CDE906230F
:10228000CDE9088902F060F880220223224806A9DD
:102290000A97CDE90623CDE9088902F055F81F4ACF
:1022A0004B233046C6E900234FF480624FF480533D
:1022B000C6E904234FF480424FF48073C6E9062335
:1022C00004234FF44032C6E908230323C6E902443D
:1022D000C6E90B44B36200F0C3FD60B900224E2092
:1022E000AE641146B56300F0B1FA4E2000F0ECFA8E
:1022F0000DB0BDE8F083FFF7B7FEEFE7000002483E
:102300000044025800100258800E002400000258B9
:10231000001C0258000C0258000402582804024015
:1023200010B5B6B000210446BC2207A80691CDE93D
:102330000211CDE9041105F085FA1F4B22689A427B
:1023400001D036B010BD082307A8079303F06CFD39
:1023500040BB1A4C042202A91948D4F8E03043F0DB
:102360000203C4F8E030D4F8E0300692002203F013
:1023700002039FED0F7B0093009B00238DED027BFA
:10238000CDE9042301F0E0FFD4F8E83043F4001372
:10239000C4F8E830D4F8E83003F400130193019B4B
:1023A00036B010BDFFF760FED3E700BFAFF300808B
:1023B0004002000012000000005400400044025897
:1023C000000402580000000010B5B6B00021044619
:1023D000BC2207A80691CDE90211CDE9041105F050
:1023E00031FA214B22689A4201D036B010BD012348
:1023F00007A8079303F018FD40BB1C4B072402A954
:102400001B48D3F8F02042F01002C3F8F020D3F8B4
:10241000F02002F010020092009AD3F8E02042F07F
:102420000102C3F8E020D3F8E030069403F0010382
:102430009FED097B0193019B8DED027B9FED087B56
:102440008DED047B01F080FF36B010BDFFF70CFE70
:10245000D3E700BFAFF300800006000002000000D9
:10246000000000000000000000100140004402587D
:10247000000002582F480023D0B50168B6B0CDE95E
:102480000233CDE90433069309B136B0D0BD012340
:10249000B822036008A805F0D5F94FF0807307A8AB
:1024A000079303F0C1FC002841D1234B4FF23F00BA
:1024B00002210C24D3F8D4200026032742F48052B2
:1024C000C3F8D420D3F8D430069403F48053CDE974
:1024D0000201019302A91948019BCDE9046701F0AB
:1024E00033FF4FF68072022302A915480694CDE906
:1024F0000223CDE9046701F027FF4CF2B3720223F7
:1025000002A910480694CDE90223CDE9046701F041
:102510001BFF4FF4C062022302A90B480694CDE9C9
:102520000467CDE9022301F00FFF36B0D0BDFFF7FD
:102530009BFDBAE7241000240044025800140258FE
:1025400000100258000C025800180258FEE700BFA5
:10255000FEE700BFFEE700BFFEE700BFFEE700BFEB
:10256000704700BF704700BF704700BF00F032B92E
:10257000014801F045B900BF800E0024014800F079
:102580003BBB00BF300E002470B5161E07DD0C46A5
:102590008D19AFF3008004F8010BA542F9D1304644
:1025A00070BD00BF4FF0FF30704700BF4FF40053C5
:1025B00000204B60704700BF01207047002070472B
:1025C00038B50D4C03460D490D4D2268491B2AB103
:1025D00013448B4208D81046236038BD0948024690
:1025E000206013448B42F6D905F0F4F80C234FF029
:1025F000FF320360104638BD281000240000082474
:1026000000040000401000242749284AD1F88830EF
:1026100043F4700310B4C1F88830136803F00F035B
:10262000062B05D8136823F00F0343F0070313604C
:102630001F4B00241F4A19681C4841F00101196012
:102640001C6119680A401A6003681B0705D50368F6
:1026500023F00F0343F007030360154B00221649D4
:10266000164C17489A61DA611A629C62D862196343
:102670005A639963DA6319645A641868114C20F438
:102680008020114918601A6623681940B1F1005F73
:1026900003D20E4B0122C3F808210D4B43F2D202A4
:1026A0005DF8044B1A60704700ED00E00020005216
:1026B000004402587FEDF6EA8002010100020202A6
:1026C0000000FF010010005C0000FFFF00800051CF
:1026D00000400052DFF834D0FFF796FF0C480D4958
:1026E0000D4A002302E0D458C4500433C4188C426D
:1026F000F9D30A4A0A4C002301E013600432A242D3
:10270000FBD305F06DF8FFF727FA704700000824A7
:1027100000000024D40000241C920008D8000024EB
:1027200040100024FEE700000F4B1B780BB901207E
:10273000704710B504464FF47A700C4AB0FBF3F3BF
:102740001068B0FBF3F000F0CDF80F2C00D808B102
:10275000012010BD002221464FF0FF3000F076F836
:10276000034B00201C6010BD6800002460000024A2
:102770006C00002410B50320124C00F055F802F054
:10278000C7FF114B11499A699B69C2F3032203F0F9
:102790000F038A5CCB5C02F01F020D4903F01F039C
:1027A000D04020FA03F308600F202360FFF7BCFF3E
:1027B00010B10124204610BD0446FFF7C7FC204697
:1027C00010BD00BF6400002400440258F8900008C7
:1027D00060000024034A044B11681B780B4413600B
:1027E000704700BF2C10002468000024014B1868BB
:1027F000704700BF2C10002438B50446FFF7F6FFE1
:102800000546631C02D0044B1B781C44FFF7EEFF07
:10281000431BA342FAD338BD68000024014B18685B
:10282000000C70470010005C06494FF6FF0C0002D8
:10283000054BCA6800F4E06002EA0C02104303434F
:10284000CB60704700ED00E00000FA051B4BDB6831
:10285000C3F3022300B5C3F1070E03F1040CBEF16C
:10286000040F28BF4FF0040EBCF1060F1AD9033B2A
:102870004FF0FF3C0CFA03FC22EA0C024FF0FF3C45
:1028800000280CFA0EFC21EA0C0101FA03F141EADE
:1028900002010ADB09010A4BC9B2034483F80013A1
:1028A0005DF804FB00221346E8E700F00F00090181
:1028B000044BC9B2034419765DF804FB00ED00E057
:1028C00000E100E0FCEC00E0002807DB012300F061
:1028D0001F01034A40098B4042F82030704700BF77
:1028E00000E100E0431EB3F1807F0CD24FF0E02204
:1028F000002006494FF0F00C5361072381F823C0F4
:102900009061136170470120704700BF00ED00E047
:10291000BFF35F8F044B00215A6A22F480325A625F
:10292000C3F89410704700BF00ED00E0064B40F084
:102930000100C3F894005A6A42F480325A62BFF32D
:102940004F8FBFF36F8F704700ED00E0174A437859
:10295000C2F89830017821B3436800B5C2F89C30C2
:10296000C37A90F80CC01B0690F80FE043EA0C7392
:1029700090F80AC00B43817B43EACC4390F80DC02A
:1029800043EA8C4390F809C043EA4143017A43EAA1
:102990000E4343EA0C2343EA4103C2F8A0305DF83A
:1029A00004FBC2F89C10C2F8A010704700ED00E0D4
:1029B00010B5846BA36B7BB1A06C03681A68A16B24
:1029C000120301D5C90735D51A68120326D5236C21
:1029D000A26B9A420BD010BDA36C1A68136818033F
:1029E00011D5D4E91031D160A26B9A42F3D123689A
:1029F000DA6842F00102DA601B689B07EBD501231D
:102A000084F8353010BD13681903E0D4E06BD4E9C5
:102A1000103101EB80011161A363D9E71B69012229
:102A2000E16B03EBC10101F081FCA26B236C013A65
:102A3000A263CDE7DB680022E16BF2E7002847D014
:102A400070B590F835300446002B3ED00222A369C1
:102A500084F83520002B34D1606A616866690B43C5
:102A60002268102943EA0603E668156843EA06036C
:102A7000266943EA0603A66843EA0603266A43EA90
:102A80000603A66A43EA0603E66A43EA0603114E12
:102A900006EA0506256B166043EA0503156843EA56
:102AA000050343EA0003136001D1E3699361D3682E
:102AB0000020012143F01E03D360E06484F8351048
:102AC00070BD002210466262C7E7FFF751FBBDE709
:102AD0000120704707F0E0FF2DE9F041044690F82F
:102AE000340082B001286DD0256802204FF0010823
:102AF000002684F83500B3F5803F84F834802868D8
:102B0000DFF8CCE040F480402860286820F0020024
:102B10002860286841EA0001A06C29602B490665FD
:102B2000C163C0F84CE0A6632664E66366642FD3F5
:102B300041641746C4F83880E363E36B6264B3F51D
:102B4000803F09D3E36B5B08E363A36B5B00A36384
:102B5000E36BB3F5803FF5D2A36B05F128013A464C
:102B6000023BA363A36B2364E36BE56B07EB830377
:102B7000009501F0A3F9C8B9216800220B6810463E
:102B800043F001030B6084F8342002B0BDE8F0810B
:102B900005F1280100F0D2FB0028EDD0402340468B
:102BA00084F83460E36484F83580EEE70123402143
:102BB00000221846E16484F8342084F8353002B0ED
:102BC000BDE8F081022002B0BDE8F081B129000823
:102BD000D92B0008704700BF806B08B5836C5B6D14
:102BE000022B06D0012380F83530C36C43F040033C
:102BF000C364FFF7EFFF08BD38B5036804461D69DD
:102C0000690737D4AA0725D4EB061CD4280713D4A8
:102C1000E90710D523681A68920703D5DA6822F00D
:102C20001E02DA60DA680121204622F00102DA6031
:102C30005961FEF773FE38BD2368082220465A61A9
:102C4000FEF76EFEE4E72368102220465A61FEF785
:102C50006FFEDBE723680221A06C04225961E36C5C
:102C600043F00103E3640A4B84F83520036500F068
:102C7000FDFCC9E70422806C5A61E36C43F0020357
:102C8000E364034B84F83520036500F0EFFCB9E7FB
:102C9000D92B00080268344B344930B4344D354CDC
:102CA000AA4218BF9A420CBF012300238A4208BFE0
:102CB00043F001033031A24208BF43F00103303436
:102CC0008A4208BF43F001033031A24208BF43F0FB
:102CD000010330348A4208BF43F0010301F55C71FF
:102CE000A24208BF43F0010304F55C748A4208BFA6
:102CF00043F001033031A24208BF43F001033034F6
:102D00008A4208BF43F001033031A24208BF43F0BA
:102D1000010330348A4208BF43F001033031A2423C
:102D200008BF43F001038A4208BF43F0010313B90F
:102D3000114B9A4213D1D3B21049114C103BA1FB55
:102D400003515F2B0F4BC1F3021103EA0203615CD5
:102D500088BF0433C1658365184630BC704722F0D4
:102D6000FF038365F8E700BF100002404000024007
:102D70002800024058000240B8040240ABAAAAAAA8
:102D80000891000800FCFFFF0368294A294930B474
:102D9000294D2A4CAB4218BF93420CBF012200229E
:102DA0008B4208BF42F001022831A34208BF42F023
:102DB000010228348B4208BF42F001022831A342AD
:102DC00008BF42F001028B4208BF42F0010212B973
:102DD0001B4A934213D1DBB21A4C1B4A0121083B18
:102DE0001A4DA4FB0343456602EB1312C3F304130D
:102DF000920001FA03F30266836630BC7047DAB2D0
:102E00001349144C1944103AA829A4FB02234FEA91
:102E1000131300D80833104A03F01F0501210F4C8B
:102E20001A44A9404466920081660266E5E700BF45
:102E300008540258305402581C5402584454025842
:102E400094540258CDCCCCCC009600168058025831
:102E5000F0FBFDBFABAAAAAA0082001080080240C6
:102E6000F8B50446FFF7C2FC002C00F07781236818
:102E70000546924A934248D01832934245D03032A8
:102E80008F498B4218BF934201F130010CBF0122E0
:102E900000228B4208BF42F0010218318B4208BF6A
:102EA00042F0010218318B4208BF42F00102183192
:102EB0008B4208BF42F0010201F556718B4208BFF8
:102EC00042F0010218318B4208BF42F00102183172
:102ED0008B4208BF42F0010218318B4208BF42F01A
:102EE000010218318B4208BF42F0010218318B42B7
:102EF00008BF42F0010218318B4208BF42F00102C4
:102F00001AB9704A934240F098810022022184F855
:102F1000342084F835101A6822F001021A6006E0A5
:102F2000FFF764FC431B052B00F2FF8023681A683F
:102F3000D607F5D4D4E9022520692A43A1691D6882
:102F4000024360690243E0690A4302435E48284045
:102F5000256A2A435D4D0243606A042800F000811F
:102F60002E685B4D3540B5F1005F80F0BB801A6084
:102F70005A6922F0070202435A612046FFF78AFE8F
:102F8000E26D3F2302F01F029340836022684B4BA7
:102F900050484B49824218BF9A4200F130000CBFA2
:102FA000012300238A4208BF43F0010330318242EB
:102FB00008BF43F0010330308A4208BF43F00103E9
:102FC0003031824208BF43F0010330308A4208BFEB
:102FD00043F0010301F55C71824208BF43F0010335
:102FE00000F55C708A4208BF43F001033031824231
:102FF00008BF43F0010330308A4208BF43F00103A9
:103000003031824208BF43F0010330308A4208BFAA
:1030100043F001033031824208BF43F001033030F6
:103020008A4208BF43F001032B49824208BF43F0A4
:1030300001032A488A4208BF43F001032831824233
:1030400008BF43F0010328308A4208BF43F0010360
:103050002831824208BF43F0010328308A4208BF6A
:1030600043F001032831824208BF43F001038A4242
:1030700008BF43F0010313B9194B9A4218D12046F7
:10308000FFF782FEA368802B5CD06368A06EDAB283
:10309000013BD4E91851072B2A60486059D8501ECB
:1030A00007286ED9626FD4E91B31002018604A608E
:1030B00000200123606584F83530F8BD100002401F
:1030C00040000240B80402403F8010FE0010005C47
:1030D0000000FFFF28000240085402581C54025808
:1030E000945402586568A5F129061F2E24D94F3D36
:1030F000032D01D842F480121A6004285A6922F084
:10310000070242EA00027FF437AFE56AA06A024391
:10311000002D3FF431AF002969D1012800F08880EB
:1031200030F002017FF428AF69E020220323012060
:10313000626584F83530F8BD734D25FA06F6F5075B
:10314000DAD5D7E70023A16ED4E9180263600360E3
:1031500051600023C4E91B336367A9E70120F8BD70
:103160002F68D4E90B562E433243684E3E40B6F1E9
:10317000005FB7D21A605A6922F0070242F00402D7
:10318000C4E72168624B634DA94218BF994205F11B
:1031900014050CBF01230023A94208BF43F001031B
:1031A0001435A94208BF43F001031435A94208BFF2
:1031B00043F001031435A94208BF43F0010314355D
:1031C000A94208BF43F001033BB9534B994204D0D5
:1031D000524B534913449B0003E0524B5249134452
:1031E0009B0001228240C4E91B3162675DE7B1F5B3
:1031F000005F0ED0022805D903287FF4BDAEE90197
:103200007FF5BAAE012340221846626584F8353056
:10321000F8BD03283FF6B0AE01A151F820F000BF81
:1032200005320008FF31000805320008313200087D
:10323000B5F1C07F7FF4A0AEE4E7354A35483B499D
:10324000834218BF934200F128000CBF01220022E4
:103250008B4208BF42F001022831834208BF42F08E
:10326000010228308B4208BF42F00102283183421C
:1032700008BF42F001028B4208BF42F0010212B9BE
:10328000254A934238D100220221294D84F8351075
:1032900084F834201A681540A268402A2AD0802A6F
:1032A0000CBF4FF480400020266AD4E90312D208F4
:1032B00042EAD102616942EAD102A16942EAD1023D
:1032C000E16942EAD1021B4942EA161219442A4333
:1032D00002431948A0FB010120461A600B099B001C
:1032E000E365FFF7D7FCE26D012302F01F02934074
:1032F00043604BE61020D7E740220323012062659C
:1033000084F83530F8BD00BF3F00C0C30000FFFFA8
:10331000085402581C540258945402583F8200101A
:10332000400902403F960016405902583054025856
:103330000F00FEFFF8ABFDA7CDCCCCCC002800F0F1
:103340007781844690F83400012800F073810120D1
:103350002DE9F0479CF835408CF83400844208D0C1
:103360004FF400620023CCF854208CF83430BDE8D0
:10337000F0870220DCF80040534D8CF83500002027
:10338000524ECCF854005248AC4218BF844205F16A
:1033900018050CBF01200020AC4208BF40F001001E
:1033A0001835AC4208BF40F001001835AC4208BFE8
:1033B00040F001001835AC4208BF40F0010005F5AF
:1033C0005675AC4208BF40F001001835AC4208BF4A
:1033D00040F001001835AC4208BF40F0010018353C
:1033E000AC4208BF40F001001835AC4208BF40F0C5
:1033F00001001835AC4208BF40F001001835AC425E
:1034000008BF40F001001835AC4214BF814640F0BF
:103410000109A5F59265AC4218BFB4420CBF012565
:10342000002502D0B9F1000F54D02668DCF858A06E
:1034300026F001062660002D78D0DCE91967776058
:10344000DCF86C7017B1DCE91C607060DCF85C6063
:103450004FF03F0E06F01F080EFA08FECAF808E00B
:10346000266826F4802626606360DCF80830402B4E
:1034700000F0E280A160E2601DB9B9F1000F00F038
:10348000E180236823F01E0343F016032360DCF879
:1034900040301BB1236843F008032360DCF8603040
:1034A0001A68D20303D51A6842F480721A601FB1F9
:1034B0003B6843F480733B602368002043F00103C2
:1034C0002360BDE8F08700BF5800024010000240B2
:1034D00040000240614F624EDCF858A0B44218BF71
:1034E000BC4206F128060CBF01270027B44208BFE2
:1034F00047F001071436B44208BF47F001071436FD
:10350000B44208BF47F001071436B44208BF47F081
:103510000107266826F001062660524EB44208BF15
:1035200047F0010717B9504FBC420BD1DCE91967CE
:103530007760DCF86C7017B1DCE91C064660B9F105
:10354000000F83D1464FDFF814E1744518BFBC4229
:103550000EF1140E0CBF01270027744508BF47F079
:1035600001070EF1140E744508BF47F001070EF174
:10357000140E744508BF47F001070EF1140E744590
:1035800008BF47F001070EF1140E744508BF47F05D
:10359000010717B9344FBC4254D1DCF85C00012755
:1035A00000F01F0E07FA0EF7CAF804706360DCF82B
:1035B0000830402B43D0A160E260236823F00E0363
:1035C00043F00A032360DCF84030002B2DD0236841
:1035D00043F004032360214B214A944218BF9C42CC
:1035E00002F128020CBF01230023944208BF43F0DC
:1035F00001031432944208BF43F001031432944291
:1036000008BF43F001031432944208BF43F00103A2
:103610001432944208BF43F001031432944208BFAD
:1036200043F00103002B3FF447AFDCF86C7035E743
:103630000120704702207047A260E1601CE7A26091
:10364000E160BAE7236823F00E0343F00A03236026
:10365000DCF84030002BBAD1BDE700BF1C54025843
:1036600008540258805402589454025800285FD0DD
:1036700038B590F835200346022A55D10168574ADB
:10368000914248D01832914245D03032544C55487E
:10369000A14218BF914204F148040CBF012200224C
:1036A000814208BF42F001023030A14208BF42F01F
:1036B00001023034814208BF42F0010200F55C7023
:1036C000A14208BF42F0010204F55C74814208BFC8
:1036D00042F001023030A14208BF42F00102303412
:1036E000814208BF42F001023030A14208BF42F0DF
:1036F00001023034814208BF42F001023030A14261
:1037000008BF42F00102814208BF42F0010212B933
:10371000354A91420ED10422002083F835200B68EF
:1037200023F001030B6038BD802201205A6538BDAB
:10373000012070472D4A2E4D0868A94218BF9142BA
:103740002C4C20F00E0005F13C050CBF012200229C
:103750000860A14208BF42F0010208682834A9426B
:1037600008BF42F0010220F00100A14208BF42F070
:10377000010214340860A14208BF42F001021E4851
:10378000814208BF42F0010212B91C4A914217D18E
:1037900001229D6DD3E91704216800F01F0021F478
:1037A0008071824021606A60DA6ED3E91910486046
:1037B00032B11168D3E91C0421F4807111604460B6
:1037C000012100241A6D83F8351083F834401AB1B2
:1037D00018469047204638BD104638BD10000240BC
:1037E0004000024070000240B80402401C540258DD
:1037F00008540258305402588054025894540258C5
:103800002DE9F04300229C4B83B09C4E1D688146FD
:10381000019203689A4A846D934218BFB3422768A5
:1038200008BF0126216818BF002645D018329548E8
:10383000834218BF934200F118000CBF01220022FE
:10384000834208BF42F001021830834208BF42F0B1
:1038500001021830834208BF42F00102183083424F
:1038600008BF42F0010200F55670834208BF42F0E3
:1038700001021830834208BF42F00102183083422F
:1038800008BF42F001021830834208BF42F0010233
:103890001830834208BF42F001021830834208BF4B
:1038A00042F001021830834208BF42F001021AB907
:1038B000754A934240F05082D9F85C10082201F01A
:1038C0001F0C02FA0CF2174240F0888127FA0CF222
:1038D000D2070CD55A69100609D5012202FA0CF25A
:1038E000A260D9F8542042F00202C9F854204FF0E7
:1038F000040E0EFA0CF038425BD0002E4FD1614A14
:10390000DFF88881434518BF934208F130080CBFA7
:1039100001220022434508BF42F0010208F11808C5
:10392000434508BF42F0010208F11808434508BFAB
:1039300042F0010208F11808434508BF42F00102B5
:1039400008F55678434508BF42F0010208F118080F
:10395000434508BF42F0010208F11808434508BF7B
:1039600042F0010208F11808434508BF42F0010285
:1039700008F11808434508BF42F0010208F1180891
:10398000434508BF42F0010208F11808434508BF4B
:1039900042F001021AB93C4A934240F019821A6877
:1039A000920706D5A060D9F8542042F00402C9F865
:1039B0005420102202FA0CFC1CEA070F6CD0002ED7
:1039C00045D1304A314EB34218BF934206F130061A
:1039D0000CBF01220022B34208BF42F00102183698
:1039E000B34208BF42F001021836B34208BF42F0AA
:1039F00001021836B34208BF42F0010206F55676BE
:103A0000B34208BF42F001021836B34208BF42F089
:103A100001021836B34208BF42F001021836B34221
:103A200008BF42F001021836B34208BF42F001025B
:103A30001836B34208BF42F001021836B34208BF3D
:103A400042F001021AB9104A934240F0C9811A6843
:103A5000100721D5C4F808C01A68560300F14C813C
:103A60001A68D20503D41A6822F008021A60D9F83D
:103A700040308BB10CE000BF600000241000024019
:103A80002800024058000240B804024040000240B2
:103A900048469847D9F85C1001F01F0120268E4057
:103AA0003E4268D0D9F80020A54BA64FBA4218BFB5
:103AB0009A4207F118070CBF01230023BA4208BF3E
:103AC00043F001031837BA4208BF43F00103183727
:103AD000BA4208BF43F001031837BA4208BF43F0A7
:103AE00001031837BA4208BF43F001031837BA423E
:103AF00008BF43F0010307F55677BA4208BF43F009
:103B000001031837BA4208BF43F001031837BA421D
:103B100008BF43F001031837BA4208BF43F001035E
:103B20001837BA4208BF43F001031837BA4208BF3A
:103B300043F001031837BA4208BF43F001031BB931
:103B4000814B9A4240F062811368DB0613D5A66070
:103B500099F83530042B136800F0AE8013F4802FF1
:103B6000136800F0D3801C0340F1DE80D9F83C30AC
:103B70000BB148469847D9F85430002B00F0B98073
:103B8000D9F85430D8071FD5D9F80020042189F876
:103B90003510136823F0010313606C4BA3FB05354C
:103BA000AD0A02E01368D90704D5019B0133AB428B
:103BB0000193F7D91368DB074CBF0323012389F86E
:103BC0003530002389F83430D9F84C30002B00F020
:103BD0009080484603B0BDE8F04318471868400796
:103BE0000AD5186820F004001860A260D9F85420A3
:103BF00042F00102C9F8542027FA0CF2D2077FF5EF
:103C000076AE534A5348834218BF934200F13000C6
:103C10000CBF01220022834208BF42F0010218308B
:103C2000834208BF42F001021830834208BF42F0CD
:103C300001021830834208BF42F0010200F55670BD
:103C4000834208BF42F001021830834208BF42F0AD
:103C500001021830834208BF42F00102183083424B
:103C600008BF42F001021830834208BF42F001024F
:103C70001830834208BF42F001021830834208BF67
:103C800042F001021830834208BF42F00102002ACC
:103C90007FF420AE002E7FF41DAE1A68042202FAD3
:103CA0000CF23A4240F09480102202FA0CFC17EA1F
:103CB0000C0F3FF4F1AE84E623F016031360536952
:103CC00023F080035361D9F840309BB3136823F08D
:103CD000080313603F230125002203FA01F1D9F8FC
:103CE0005030A16089F8355089F83420002B7FF4DA
:103CF00070AF03B0BDE8F0831B6818037FF5B7AE63
:103D0000D9F84830002B7FF4C3AEC5E613F48073B6
:103D10007FF42CAF116821F010011160012289F8A5
:103D2000343089F8352021E7D9F84430002B7FF46E
:103D300020AF20E7D9F84830002BC7D1CAE700BF31
:103D40001000024028000240B8040240B5814E1B1A
:103D500058000240400002404E4A4F4DAB4218BF4F
:103D6000934205F114050CBF01220022AB4208BFAB
:103D700042F001021435AB4208BF42F00102143593
:103D8000AB4208BF42F001021435AB4208BF42F01B
:103D900001021435AB4208BF42F0010212B93F4A9A
:103DA0009342A6D1D9F85C5004261A6805F01F0585
:103DB000AE400E4219D0570717D5100466604BD598
:103DC000D1034FD4D9F84830002B7FF402AF90E7ED
:103DD0001A68102202FA0CFC17EA0C0F3FF45CAED2
:103DE0001A6852077FF558AE34E60226AE400E42FE
:103DF00011D097070FD56660140439D5D00343D48A
:103E0000D9F84430002B7FF4E4AE72E713689F07C3
:103E10007FF5B1AE9BE60826AE400E423FF469AF97
:103E200011077FF566AF1A68002122F00E021A60B2
:103E30000123D9F84C2003FA05F56560C9F8543020
:103E400089F8341089F83530002A3FF452AF4846DB
:103E500003B0BDE8F0431047920603D41A6822F07D
:103E600004021A60D9F84030002B7FF4B2AE40E76C
:103E700012F0200208D11968012421F00A0119600A
:103E800089F8354089F83420D9F83C30002B7FF48C
:103E9000A0AE2EE7085402581C54025894540258FD
:103EA00070B4056880686B60402803D0A960EA6040
:103EB00070BC7047AA60E96070BC7047F8B50446F2
:103EC0008068802800F0828194F83400012800F096
:103ED0000982012094F8355085425FFA85FC84F808
:103EE000340003D04FF400636365F8BD25689E4835
:103EF0009E4EB54218BF854206F118060CBF012040
:103F00000020B54208BF40F001001836B54208BF96
:103F100040F001001836B54208BF40F001001836E5
:103F2000B54208BF40F001001836B54208BF40F066
:103F300001001836B54208BF40F0010006F556767C
:103F4000B54208BF40F001001836B54208BF40F046
:103F500001001836B54208BF40F001001836B542DE
:103F600008BF40F001001836B54208BF40F001001C
:103F70001836B54208BF40F001001836B54208BFF8
:103F800040F00100022684F835600026666518B905
:103F90007748854240F0AD812E68E06D46F480267A
:103FA00000F01F002E602B613F23A56D8340AB60A6
:103FB000069B2046FFF774FF6B4923686B4A9342C8
:103FC00018BF8B420CBF0121002140F00481D4E9CD
:103FD00019205060E06E10B1D4E91C2555601A68B4
:103FE00022F01E0242F016021A605A6942F0800264
:103FF0005A61226C002A00F077811A6842F00802A8
:104000001A6000296DD15B4A5B48834218BF934216
:1040100000F130000CBF01220022834208BF42F0B1
:1040200001021830834208BF42F001021830834277
:1040300008BF42F001021830834208BF42F001027B
:1040400000F55670834208BF42F0010218308342E7
:1040500008BF42F001021830834208BF42F001025B
:104060001830834208BF42F001021830834208BF73
:1040700042F001021830834208BF42F001021830BA
:10408000834208BF42F001021830834208BF42F069
:1040900001023A48834208BF42F0010214308342D1
:1040A00008BF42F001021430834208BF42F001020F
:1040B0001430834208BF42F001021430834208BF2B
:1040C00042F001021430834208BF42F00102143072
:1040D000834208BF42F0010212B9294A93420FD12C
:1040E000E06E226E1468E40303D5146844F480740F
:1040F000146018B1026842F48072026000295FD136
:104100001D4A1C4C1F49A34218BF93421E4804F18C
:1041100060040CBF012200228B4208BF42F0010262
:104120003031834208BF42F0010200F568708B42D3
:1041300008BF42F0010201F55C71A34208BF42F0E2
:10414000010204F568748B4208BF42F0010230316D
:10415000834208BF42F0010260308B4208BF42F048
:104160000102303112E000BF10000240280002407E
:10417000B80402405800024040000240085402586F
:10418000945402587000024088000240A34208BFC5
:1041900042F001028B4208BF42F0010230318342FB
:1041A00008BF42F001028B4208BF42F001023AB957
:1041B0003030181AB0FA80F04009002800F0A780CB
:1041C0001A68002042F001021A60F8BD4FF48073B3
:1041D00001206365F8BD18325148524D834218BF23
:1041E000934200F118000CBF01220022834208BF55
:1041F00042F001021830834208BF42F00102183039
:10420000834208BF42F001021830834208BF42F0E7
:10421000010200F55670834208BF42F001021830D7
:10422000834208BF42F001021830834208BF42F0C7
:1042300001021830834208BF42F001021830834265
:1042400008BF42F001021830834208BF42F0010269
:104250001830834208BF42F001021830834208BF81
:1042600042F001023048AB4218BF834205F12805F5
:104270000CBF01200020AB4208BF40F00100143504
:10428000AB4208BF40F001001435AB4208BF40F01C
:1042900001001435AB4208BF40F001001435AB42B9
:1042A00008BF40F001001435AB4208BF40F00100E8
:1042B00000B952B1D4E919054560E06E10B1D4E9F6
:1042C0001C566E60002A7FF48AAE1A68206C22F0B9
:1042D0000E0242F00A021A60F0B11A6842F00402BB
:1042E0001A6090E60220F8BDA26C002A7FF485AE29
:1042F00087E6E06D48F220062F6800F01F003E437D
:104300000CFA00F02E602B61A36D586050E61A681D
:1043100042F001021A60F8BDA26C002ADDD172E6FB
:1043200058000240085402581C540258006810B447
:1043300022B9C16000205DF8044B70470161002084
:104340005DF8044B704700BF2DE9F04F0C6883B057
:10435000002C00F0A6804FF0000C8E4F6346012227
:104360009A4012EA040E00F095804D6805F00309AA
:1043700009F1FF36012E40F29780B9F1030F40F0AA
:10438000D18009FA0CF26FEA0208066815F4403F82
:1043900006EA080842EA080202607BD0D7F8F42057
:1043A00023F0030803F0030942F0020208F1B048C9
:1043B0004FEA8909C7F8F42008F58068D7F8F42097
:1043C00002F002020192019A0F22D8F8086002FA64
:1043D00009F226EA0202704EB04229D006F5806644
:1043E000B04200F0AC806D4EB04200F0AE806C4E3A
:1043F000B04200F09E806B4EB04200F0B2806A4E38
:10440000B04200F0B480694EB04200F0A480684E23
:10441000B04200F0B280674EB04200F0B480664E09
:10442000B0420CBF09260A2606FA09F942EA090237
:10443000C8F808204FF0B042EE026FEA0E0812688A
:104440004FF0B04654BF08EA02024EEA0202326060
:10445000AA0276684FF0B04254BF08EA06064EEA58
:1044600006065660D2F88460AA034FF0B04254BFEB
:1044700008EA06064EEA0606ED034FF0B045C2F81C
:104480008460D2F8802054BF08EA02024EEA020299
:10449000C5F8802001330CF1020C34FA03F27FF4EA
:1044A0005EAF03B0BDE8F08F4FF00308866808FAEE
:1044B0000CF826EA080ACE686FEA080806FA0CF635
:1044C00046EA0A068660C5F30016D0F804A09E40AE
:1044D0002AEA020232434260C268B9F1020F8E68D2
:1044E00002EA080206FA0CF646EA020609FA0CF29B
:1044F000C6607FF44AAF03F007064FEAD3094FEADC
:10450000860B0F2600EB890906FA0BF6D9F820A0D6
:104510002AEA060A0E6906FA0BF646EA0A06C9F8FE
:10452000206032E74FF0030808FA0CF86FEA080839
:10453000D2E7032606FA09F942EA090278E70126DA
:1045400006FA09F942EA090272E7022606FA09F9AF
:1045500042EA09026CE7062606FA09F942EA09026C
:1045600066E7042606FA09F942EA090260E7052629
:1045700006FA09F942EA09025AE7072606FA09F992
:1045800042EA090254E7082606FA09F942EA090252
:104590004EE700BF004402580000025800080258CD
:1045A000000C02580010025800140258001802585B
:1045B000001C0258002002580024025802B90904C5
:1045C000816170472DE9F0474FF0200882460E4682
:1045D0001746DAF800309D6915F0020540F0C680F4
:1045E0009A6912F0100251D01022B946DA61741C97
:1045F0009A6951D1900600F1B080002D40F0B08052
:104600009C69A106FCD50D2407204FF0050C04225F
:104610000125C3F81C80996911F4807F27D04FF4DD
:1046200080724D05DA6126D48C0579D464469A6986
:10463000900701D500229A629A69D10703D49A693A
:1046400042F001029A615A6800214B48202502403D
:1046500001205A60DAF844308AF840102343CAF83F
:1046600044308AF841508AF84210BDE8F087480586
:1046700051D542F008044FF480628D05DA61D6D539
:1046800044F002044FF40072DA61D0E709240320F9
:104690004FF0010C1546BEE792065ED4002D5FD1A7
:1046A000FEF7A4F8A0EB0900DAF80030864201D347
:1046B000002E9CD158689AF842209969D2B20C0415
:1046C0000FD541040DD4202A0BD05A6842F4804201
:1046D0005A60FEF78BF8DAF80030814601E0DAF82C
:1046E00000309C6914F0200481D1FEF77FF8A0EB24
:1046F00009001928F3D9DAF844200125DAF8003046
:1047000042F020028AF84040CAF844208AF84180EA
:104710008AF84240E5E78C0504D542F00204B1E78F
:104720000446AFE72DBB721C3FF455AFFEF75EF8B1
:10473000C01BB04202D8002E7FF44BAFDAF84430F1
:104740002021002201200B438AF84020CAF844307F
:104750008AF841108AF8422087E7002D3FF453AFD2
:104760000D2407204FF0050C042254E70020BDE87B
:10477000F08714465BE700BF00E800FE2DE9F04734
:104780004FF0200882460E461746DAF800309D6941
:1047900015F0200540F0C4809A6912F0100251D043
:1047A0001022B946DA61741C9A6951D1900600F161
:1047B000AE80002D40F0AE809C69A106FCD50D2492
:1047C00007204FF0050C04220125C3F81C809969CD
:1047D00011F4807F27D04FF480724D05DA6126D422
:1047E0008C0579D464469A69910701D500229A62B2
:1047F0009A69D20703D49A6942F001029A615A6811
:1048000000214A482025024001205A60DAF844304D
:104810008AF840102343CAF844308AF841508AF895
:104820004210BDE8F087480551D542F008044FF426
:1048300080628D05DA61D6D544F002044FF400722F
:10484000DA61D0E7092403204FF0010C1546BEE7DA
:1048500092065CD4002D5DD1FDF7C8FFA0EB0900E6
:10486000DAF80030864201D3002E9CD158689AF8BD
:1048700042209969D2B20C040FD541040DD4202AEC
:104880000BD05A6842F480425A60FDF7AFFFDAF865
:104890000030814601E0DAF800309C6914F0200411
:1048A00081D1FDF7A3FFA0EB09001928F3D9DAF8AD
:1048B000443001258AF8404043F02003CAF84430D0
:1048C0008AF84180DAF800308AF84240E5E7880546
:1048D00004D542F00204B1E70446AFE71DBBFDF783
:1048E00085FFC01BB04202D8002E7FF44EAFDAF82D
:1048F00044302021002201200B438AF84020CAF8CE
:1049000044308AF841108AF84220BDE8F087002D33
:104910003FF455AF0D2407204FF0050C042256E755
:104920000020BDE8F08714465DE700BF00E800FE08
:1049300000284ED010B590F84130044603F0FF0235
:10494000002B41D023682421626884F84110196843
:1049500022F07062E06821F00101012819601A61FB
:104960009A6822F400429A60A26829D042F4044274
:1049700002289A6002D14FF400625A6058684FF0E2
:10498000200C1549226901435960D96821F400417E
:10499000D960D4E90501024342EA0122D4E90710B3
:1049A000DA600022014310461960196841F00101E4
:1049B0001960626484F841C0226384F8422010BD0B
:1049C00042F400429A60D9E780F84020FDF7A8FC45
:1049D000B8E70120704700BF008000022DE9F84FC2
:1049E0009A4690F84130BDF82CB0202BDDF830808D
:1049F00040F0A8800A9B0446002B00F09D80BBF18C
:104A0000000F00F0998090F84030012B00F09A8060
:104A100001230F46914680F84030FDF7E7FE064639
:104A200005E0FDF7E3FE801B192800F2A98023684A
:104A30009D6915F40045F4D10A9AC7F3090777492F
:104A4000204662622122656384F84120402284F876
:104A500042206564A4F82AB05A680A405FFA8AF1D5
:104A600042EA01426E493A43114332465960414697
:104A7000FFF7A8FD002871D1BAF1010F0AD04FEA63
:104A800019222368414620469A623246FFF79AFD72
:104A9000002863D15FFA89F322689362B8F1FF3F7F
:104AA00040F0898093691806FCD5638D9BB2FF2B7B
:104AB00040F2918053685B490B405B493B4319438B
:104AC000FF2323855160574D4FF0FF0ADFF85891BF
:104AD00004E0638D9BB2002B00F08B803246414690
:104AE0002046FFF76FFD002873D1626A216812F833
:104AF000010B238D88626262013B628D9BB2013A99
:104B0000238592B26285628D92B2002AE1D0002B99
:104B1000DFD1B8F1FF3F26D18B691A06FCD5638D32
:104B20009BB2FF2B3AD94B68A4F828A02B403B43FB
:104B300043EA09034B60CCE74FF400730120636440
:104B4000BDE8F88F0220BDE8F88F636C20210022B9
:104B50000B43636484F8411084F842200023012051
:104B600084F84030ECE78B691B06D8D4FDF73EFE95
:104B7000801B804504D3B8F1000F01D02168C8E73D
:104B8000636C2021002201200B4384F840206364E1
:104B900084F8411084F84220BDE8F88F638D9BB201
:104BA000DAB223854B682B403B4343EA024343F090
:104BB00000734B608DE7936919063FF576AFFDF7FB
:104BC00015FE801B8045C0D3B8F1000FBDD0226810
:104BD00064E70120B4E7638D12489BB2D9B2238504
:104BE000536803403B4343EA014343F0007353607F
:104BF00069E7324641462046FFF7C0FD0028E8D16C
:104C000023682021094DD9615A682A405A6084F8E6
:104C1000411084F8400084F8420091E7009800FCBD
:104C200000200001009C00FC0000FF0100E800FEE5
:104C30002DE9F0471F4690F84130BDF82490202B15
:104C40000A9C40F0BF80089B8246002B00F0B38096
:104C5000B9F1000F00F0AF8090F84030012B00F068
:104C6000B18001230E46904680F84030FDF7BEFD2E
:104C7000054605E0FDF7BAFD401B192800F28B80C0
:104C8000DAF80030986910F40040F3D1089AC6F3BE
:104C900009068749CAF824202222CAF834008AF873
:104CA000412040228AF84220CAF844005046AAF81F
:104CB0002A905A680A40F9B242EA01422146324338
:104CC00042F400525A602A46FFF77CFC002840F06C
:104CD0008780012F0BD04FEA1822DAF800302146E6
:104CE00050469A622A46FFF76DFC002878D15FFA99
:104CF00088F3DAF800209362611C40F0A480936985
:104D00005B06FCD5BAF82A309BB2FF2B40F2A98093
:104D1000536867490B40674933431943FF23AAF897
:104D200028305160601C644F4FF0FF09DFF8948118
:104D300027D193695907FCD5526ADAF824301A70E2
:104D4000DAF82430BAF82A200133013ACAF82430BC
:104D5000BAF8283092B2013BAAF82A20BAF82A20E1
:104D60009BB292B2AAF828300BB9002A47D1BAF800
:104D70002A309BB2002B00F08480601CDAF80020FF
:104D8000D7D093695B07D7D4FDF730FD401B844231
:104D900001D3002CF1D1DAF8443020210022012087
:104DA0000B438AF84020CAF844308AF841108AF848
:104DB0004220BDE8F0874FF400730120CAF8443068
:104DC000BDE8F0870220BDE8F087DAF84430202102
:104DD00000220B43CAF844308AF841108AF8422076
:104DE000002301208AF84030EAE793691B060DD4BE
:104DF000FDF7FCFC401B8442CDD3002CCBD0601CC3
:104E0000DAF80020F1D193691906FCD5BAF82A30F6
:104E10009BB2FF2B08D95368AAF828903B40334334
:104E200043EA08035360A2E7BAF82A309BB2D9B22A
:104E3000AAF8283053683B40334343EA014343F028
:104E40000073536093E793695F063FF55BAFFDF72F
:104E5000CDFC401B8442B8D3002CB6D0DAF8002039
:104E60004AE7BAF82A3012489BB2D9B2AAF82830D9
:104E700053680340334343EA0143104919435160E7
:104E800050E72A4621465046FFF778FC70B9DAF819
:104E9000003020210A4CD9615A6822405A608AF8B1
:104EA00041108AF840008AF8420089E7012087E72C
:104EB000009800FC0024FF01009C00FC002400027C
:104EC00000E800FE0000FF0190F84120202A23D1D5
:104ED0005FFA82FC90F840200346012A1CD0026849
:104EE000242000B583F841004FF0000E106820F038
:104EF00001001060106820F48050106010680143B9
:104F000070461160116841F00101116083F841C0E1
:104F100083F840E05DF804FB0220704790F84120E0
:104F2000202A22D1034600B55FFA82FE90F8402085
:104F3000012A1CD0026824204FF0000C83F84100A5
:104F4000106820F001001060106820F4706040EAE2
:104F5000012160461160116841F00101116083F880
:104F600041E083F840C05DF804FB02207047022056
:104F70005DF804FB38B5104CE36813F0040FE368E8
:104F800005D103F00703181A18BF012038BD23F01C
:104F900007031843E060FDF729FC054605E0FDF72F
:104FA00025FC401BB0F57A7F04D863689B04F6D5D6
:104FB000002038BD012038BD004802583B4B30B4BA
:104FC0009A6A9C6ADD6A14F47C7F596BC4F30510FD
:104FD00038D0C1F3CC0105F0010502F0030205FB56
:104FE00001F1012A07EE901AB8EEE77A02D0022A00
:104FF0004ED04AB307EE900ADFED2D6AF8EEE77A5D
:105000001B6B86EEA76ADFED2B5AC3F3080306EE8F
:10501000903AB7EE005AF8EEE66A76EE856AE7EE69
:10502000256A66EE266A214B1B6BC3F346230133C8
:1050300007EE903AB8EEE77AC6EE877AFCEEE77AAA
:1050400017EE900A30BC70471A68920627D5196887
:1050500007EE900A184AB7EE006A1B6BC1F3C10154
:10506000F8EEE77A9FED135AC3F30803CA4006EE41
:10507000903A05EE902AF8EEE66AF8EEE55A76EEFA
:10508000866A85EEA76AE7EE056A66EE266ACAE7D3
:1050900007EE900ADFED096AF8EEE77AB0E707EE6F
:1050A000900ADFED076AF8EEE77AA9E700440258B4
:1050B0000024744A000000390090D00320BCBE4B8D
:1050C0000024744C002800F0E881F8B50368044619
:1050D000D9072ED5A4490A69896A02F03802102A34
:1050E00000F00781182A00F0FF806368B3F5803F65
:1050F00000F02A81002B00F06881B3F5A02F9A4BB5
:105100001A6800F0698222F480321A601A6822F468
:1051100080221A60FDF76AFB934E054605E0FDF715
:1051200065FB401B642800F24E8133689B03F6D573
:1051300023689D0700F18A80D90633D58A4A13690E
:10514000926A03F03803082B00F0E380182B00F07C
:10515000DB80E369844D002B00F06F812B6843F006
:1051600080032B60FDF742FB064605E0FDF73EFBA2
:10517000801B022800F227812B68DB05F6D5FDF79E
:105180004DFB41F20303984200F24782226A6B68AA
:10519000202A23F0F8430CBF43F0804343EA8263A4
:1051A0006B6023681D0716D563696F4D002B00F0F7
:1051B00022816B6F43F001036B67FDF717FB064617
:1051C00005E0FDF713FB801B022800F2FC806B6FEB
:1051D0009807F6D523689A0616D5A369624D002B69
:1051E00000F01A812B6843F480532B60FDF7FEFA20
:1051F000064605E0FDF7FAFA801B022800F2E3807C
:105200002B689F04F6D52368590700F1A380606AD4
:10521000D0B1554D2B6903F03803182B00F0AE8147
:105220002B68022823F080732B6000F04281FDF789
:10523000DDFA044605E0FDF7D9FA001B022800F26A
:10524000C2802B689B01F6D40020F8BD464A136942
:10525000926A13F038032DD1434BE2681B6859075B
:1052600001D5002A4ED0404D2B6823F0190313437B
:105270002B60FDF7BBFA064605E0FDF7B7FA801B89
:10528000022800F2A0802B685B07F6D5FDF7C6FA6E
:1052900041F20303984200F2F78022696B68402ACA
:1052A00023F47C330CBF43F4003343EA02336B60D6
:1052B000236841E7182B00F0E3802B4DE2682B6850
:1052C000002A00F0CC8023F0190313432B60FDF774
:1052D0008DFA064604E0FDF789FA801B022872D891
:1052E0002B685F07F7D5D1E701F0030102297FF4AE
:1052F000FCAE1D4A126892037FF51BAF6268002A5C
:105300007FF417AF0120F8BD02F00302012A7FF4F9
:1053100020AF154B1B68DA0502D5E369802BF1D16C
:10532000FDF77CFA41F20303984200F2B880226A4A
:10533000202A00F087810C494B6823F0F84343EAA8
:1053400082634B6023682DE7074A136843F4803378
:105350001360DFE6054D2B6843F480732B60FDF787
:1053600045FA064609E000BF0044025800480258CA
:10537000FDF73CFA801B642825D82B68DA05F7D5A1
:10538000A368012B00F05881002B00F02D81052B24
:10539000A64B1A6F00F05F8122F001021A671A6FA4
:1053A00022F004021A67FDF721FAA04E41F2883775
:1053B000054604E0FDF71AFA401BB84203D8336FE4
:1053C0009B07F7D523E70320F8BD984D2B6823F4FE
:1053D00080332B602B6823F480232B60FDF706FAC3
:1053E000064604E0FDF702FA801B6428EBD82B6820
:1053F0009F03F7D49CE66B6F23F001036B67FDF707
:10540000F5F9064604E0FDF7F1F9801B0228DAD829
:105410006B6F9907F7D4DDE62B6823F480532B607C
:10542000FDF7E4F9064604E0FDF7E0F9801B0228E9
:10543000C9D82B689804F7D4E5E62B6823F08003DD
:105440002B60FDF7D3F9064604E0FDF7CFF9801B8A
:105450000228B8D82B68DF05F7D42368A2E623F02A
:1054600001032B60FDF7C2F9064604E0FDF7BEF923
:10547000801B0228A7D82B685807F7D423685BE65F
:1054800090077FF41AAFE7E66B68226923F0FE43CA
:1054900043EA02636B6023684EE601207047634A6B
:1054A000216AD36823F07C5343EA0163D360236805
:1054B00078E6FDF79BF9064604E0FDF797F9801BB7
:1054C000022880D82B689901F7D4A96A584BA26AA0
:1054D0000B405849554E1343E26A43EA0213AB624C
:1054E000D4E90D32013B013A5B0212049BB202F493
:1054F000FE021343226B013AC2F308021343E26B2C
:10550000013A120602F0FE4213432B63EB6A23F0CA
:105510000103EB626A6BA36C114041EAC30169634A
:10552000EB6A226C23F00C031343EB62EB6A626CB0
:1055300023F002031343EB62EB6A43F48033EB6224
:10554000EB6A43F40033EB62EB6A43F48023EB62D3
:10555000EB6A43F00103EB622B6843F080732B602E
:10556000FDF744F9044605E0FDF740F9001B022869
:105570003FF629AF33689A01F6D565E60128AA6A95
:105580002D6B3FF462AE02F00303A16A8B427FF4FD
:10559000B9AEC2F30512E36A9A427FF4B3AE236B4D
:1055A000C5F30802013B9A427FF4ACAE636BC5F3CE
:1055B0004622013B9A427FF4A5AEA36BC5F3064297
:1055C000013B9A427FF49EAEE06BC5F3066501385D
:1055D000281A18BF0120F8BD42F480221A601A6808
:1055E00042F480321A6095E5104D41F288372B6FF6
:1055F00023F001032B672B6F23F004032B67FDF7C8
:10560000F5F8064605E0FDF7F1F8801BB8423FF6D5
:10561000DAAE2B6F9807F6D4F9E5EB68226A23F02F
:105620007C5343EA0263EB602368BBE50044025805
:105630000CFCFFFF0700FFFF0B4A136F43F0010351
:105640001367B0E6084A536823F0F84343F08043F9
:1056500053602368A6E542F004021A671A6F42F00D
:1056600001021A679FE600BF0044025870B5254E3C
:1056700088B00D461446D6F8E030F8B943F001037F
:105680004FF4807202A9C6F8E030D6F8E0300690F8
:1056900003F001031C480093009B0223CDE9022381
:1056A00000220323CDE90423FEF74EFE326922F0E7
:1056B000FE722A432243326108B070BD43F00403F6
:1056C0004FF400721148C6F8E030D6F8E03003F02D
:1056D000040301930223019902A9CDE902230022C8
:1056E0000323CDE9042300230693FEF72DFE33693F
:1056F00023F07E4343EA050141EAC411316108B059
:1057000070BD00BF00440258000002580008025853
:10571000474A136903F03803102B04D0182B0DD01F
:105720001BB14448704744487047136899064AD5EE
:1057300013684248C3F3C103D8407047936A30B43A
:10574000946AD56A14F47C7F516BC4F3051038D089
:10575000C1F3CC0105F0010503F0030305FB01F1E2
:10576000012B07EE901AB8EEE77A02D0022B2CD06C
:1057700093B307EE900ADFED326AF8EEE77A136B27
:1057800086EEA76ADFED2F5AC3F3080306EE903AC0
:10579000B7EE005AF8EEE66A76EE856AE7EE256A1D
:1057A00066EE266A224B1B6BC3F34623013307EEDA
:1057B000903AB8EEE77AC6EE877AFCEEE77A17EE13
:1057C000900A30BC70471D48704707EE900ADFED25
:1057D0001E6AF8EEE77AD2E713689B0620D51468B4
:1057E00007EE900A1549B7EE006A136BC4F3C104C3
:1057F000F8EEE77A9FED135AC3F30803E14006EE93
:10580000903A05EE901AF8EEE66AF8EEE55A76EE72
:10581000866A85EEA76AE7EE056A66EE266AC1E744
:1058200007EE900ADFED096AF8EEE77AA7E700BF16
:105830000044025800093D0040787D010090D003EB
:105840000024744A0000003920BCBE4B0024744C74
:10585000002800F00C818C4A136803F00F038B4280
:105860002DE9F04104460D460CD2136823F00F03D6
:105870000B431360136803F00F038B4202D0012027
:10588000BDE8F08123685F070BD5804920698A69EC
:1058900002F07002904204D98A6922F07002024339
:1058A0008A611E070BD579496069CA6902F07002E6
:1058B000904204D9CA6922F070020243CA61D80634
:1058C0000BD57249A069CA6902F4E062904204D91A
:1058D000CA6922F4E0620243CA6199060BD56B499A
:1058E000E0690A6A02F07002904204D90A6A22F062
:1058F000700202430A629A0740F1AB806348E16894
:10590000826902F00F02914204D9826922F00F02EB
:105910000A438261D80730D55C4AA168936923F4B1
:1059200070630B43936161681368022900F0A180E2
:10593000032900F09880012900F0A18058079ED526
:10594000524E41F28838336923F007030B43336129
:10595000FCF74CFF074605E0FCF748FFC01B40453D
:1059600000F28B803369626803F03803B3EBC20F37
:10597000F2D12368990706D5E1684448826902F0AC
:105980000F028A4269D840490A6802F00F02AA420F
:105990000AD90A6822F00F022A430A600A6802F054
:1059A0000F02AA427FF46BAF5A070BD53749206923
:1059B0008A6902F07002904204D28A6922F0700271
:1059C00002438A611F070BD530496069CA6902F03A
:1059D0007002904204D2CA6922F070020243CA6186
:1059E000DE060BD52949A069CA6902F4E06290423B
:1059F00004D2CA6922F4E0620243CA619D060BD553
:105A0000224AE169136A03F07003994204D2136ACF
:105A100023F070030B431362FFF77AFE1B4A034621
:105A20001B4891699269C1F303211A4D02F00F02DC
:105A3000194C415C825C01F01F01184802F01F0202
:105A4000CB4000682B60D3402360BDE8F041FCF7F9
:105A50006BBEDA073FF560AF95E7826922F00F026F
:105A6000114381618FE79F013FF56AAF07E701208E
:105A700070479B033FF564AF01E7032000E7DE05B5
:105A80003FF55EAFFBE600BF002000520044025825
:105A9000F890000860000024640000246C000024DA
:105AA000184A38B5136903F03803102B1AD0182B95
:105AB00023D0CBB11448134B14499A699B69C2F3A4
:105AC0000322134C03F00F03124D8A5CCB5C02F0EF
:105AD0001F0220FA02F203F01F0022FA00F02A60EF
